{
  "contractName": "Contacts",
  "abi": [
    {
      "constant": true,
      "inputs": [],
      "name": "count",
      "outputs": [
        {
          "name": "",
          "type": "uint256"
        }
      ],
      "payable": false,
      "stateMutability": "view",
      "type": "function",
      "signature": "0x06661abd"
    },
    {
      "constant": true,
      "inputs": [
        {
          "name": "",
          "type": "uint256"
        }
      ],
      "name": "contacts",
      "outputs": [
        {
          "name": "id",
          "type": "uint256"
        },
        {
          "name": "name",
          "type": "string"
        },
        {
          "name": "phone",
          "type": "string"
        }
      ],
      "payable": false,
      "stateMutability": "view",
      "type": "function",
      "signature": "0xe0f478cb"
    },
    {
      "inputs": [],
      "payable": false,
      "stateMutability": "nonpayable",
      "type": "constructor",
      "signature": "constructor"
    },
    {
      "constant": false,
      "inputs": [
        {
          "name": "_name",
          "type": "string"
        },
        {
          "name": "_phone",
          "type": "string"
        }
      ],
      "name": "createContact",
      "outputs": [],
      "payable": false,
      "stateMutability": "nonpayable",
      "type": "function",
      "signature": "0x3dce4920"
    }
  ],
  "bytecode": "0x60806040526000805534801561001457600080fd5b506100986040805190810160405280600c81526020017f5a616661722053616c65656d00000000000000000000000000000000000000008152506040805190810160405280600981526020017f313233313233313233000000000000000000000000000000000000000000000081525061009d640100000000026401000000009004565b6101d0565b6000808154809291906001019190505550606060405190810160405280600054815260200183815260200182815250600160008054815260200190815260200160002060008201518160000155602082015181600101908051906020019061010692919061012b565b50604082015181600201908051906020019061012392919061012b565b509050505050565b828054600181600116156101000203166002900490600052602060002090601f016020900481019282601f1061016c57805160ff191683800117855561019a565b8280016001018555821561019a579182015b8281111561019957825182559160200191906001019061017e565b5b5090506101a791906101ab565b5090565b6101cd91905b808211156101c95760008160009055506001016101b1565b5090565b90565b6105cc806101df6000396000f3fe608060405260043610610057576000357c0100000000000000000000000000000000000000000000000000000000900463ffffffff16806306661abd1461005c5780633dce492014610087578063e0f478cb146101e6575b600080fd5b34801561006857600080fd5b5061007161030d565b6040518082815260200191505060405180910390f35b34801561009357600080fd5b506101e4600480360360408110156100aa57600080fd5b81019080803590602001906401000000008111156100c757600080fd5b8201836020820111156100d957600080fd5b803590602001918460018302840111640100000000831117156100fb57600080fd5b91908080601f016020809104026020016040519081016040528093929190818152602001838380828437600081840152601f19601f8201169050808301925050505050505091929192908035906020019064010000000081111561015e57600080fd5b82018360208201111561017057600080fd5b8035906020019184600183028401116401000000008311171561019257600080fd5b91908080601f016020809104026020016040519081016040528093929190818152602001838380828437600081840152601f19601f820116905080830192505050505050509192919290505050610313565b005b3480156101f257600080fd5b5061021f6004803603602081101561020957600080fd5b81019080803590602001909291905050506103a1565b604051808481526020018060200180602001838103835285818151815260200191508051906020019080838360005b8381101561026957808201518184015260208101905061024e565b50505050905090810190601f1680156102965780820380516001836020036101000a031916815260200191505b50838103825284818151815260200191508051906020019080838360005b838110156102cf5780820151818401526020810190506102b4565b50505050905090810190601f1680156102fc5780820380516001836020036101000a031916815260200191505b509550505050505060405180910390f35b60005481565b6000808154809291906001019190505550606060405190810160405280600054815260200183815260200182815250600160008054815260200190815260200160002060008201518160000155602082015181600101908051906020019061037c9291906104fb565b5060408201518160020190805190602001906103999291906104fb565b509050505050565b6001602052806000526040600020600091509050806000015490806001018054600181600116156101000203166002900480601f0160208091040260200160405190810160405280929190818152602001828054600181600116156101000203166002900480156104535780601f1061042857610100808354040283529160200191610453565b820191906000526020600020905b81548152906001019060200180831161043657829003601f168201915b505050505090806002018054600181600116156101000203166002900480601f0160208091040260200160405190810160405280929190818152602001828054600181600116156101000203166002900480156104f15780601f106104c6576101008083540402835291602001916104f1565b820191906000526020600020905b8154815290600101906020018083116104d457829003601f168201915b5050505050905083565b828054600181600116156101000203166002900490600052602060002090601f016020900481019282601f1061053c57805160ff191683800117855561056a565b8280016001018555821561056a579182015b8281111561056957825182559160200191906001019061054e565b5b509050610577919061057b565b5090565b61059d91905b80821115610599576000816000905550600101610581565b5090565b9056fea165627a7a72305820ae8381cbb4cf8502ad0020e67cf39202e7ce072247eec21de2a4a78b69f0f9d40029",
  "source": "pragma solidity >=0.4.22 <0.9.0;\n\ncontract Contacts {\n  uint public count = 0; // state variable\n\n  struct Contact {\n\t\tuint id;\n\t\tstring name;\n\t\tstring phone;\n\t}\n\n\tconstructor() public {\n\t\tcreateContact('Zafar Saleem', '123123123');\n\t}\n\n\tmapping(uint => Contact) public contacts;\n\n\tfunction createContact(string memory _name, string memory _phone) public {\n\t\tcount++;\n\t\tcontacts[count] = Contact(count, _name, _phone);\n\t}\n}\n",
  "sourcePath": "/Users/xafar/Documents/projects/blockchain-tutorials/contracts/contracts/Contacts.sol",
  "compiler": {
    "name": "solc",
    "version": "0.5.0+commit.1d4f565a.Emscripten.clang"
  },
  "schemaVersion": "3.0.1",
  "updatedAt": "2021-12-05T09:38:16.480Z",
  "devdoc": {
    "methods": {}
  },
  "userdoc": {
    "methods": {}
  }
}